{
  "_format": "hh-sol-artifact-1",
  "contractName": "Transactions",
  "sourceName": "contracts/Transactions.sol",
  "abi": [
    {
      "inputs": [],
      "stateMutability": "nonpayable",
      "type": "constructor"
    },
    {
      "anonymous": false,
      "inputs": [
        {
          "indexed": true,
          "internalType": "address",
          "name": "sender",
          "type": "address"
        },
        {
          "indexed": true,
          "internalType": "address",
          "name": "receiver",
          "type": "address"
        },
        {
          "indexed": false,
          "internalType": "uint256",
          "name": "amount",
          "type": "uint256"
        },
        {
          "indexed": false,
          "internalType": "string",
          "name": "remark",
          "type": "string"
        },
        {
          "indexed": false,
          "internalType": "uint256",
          "name": "timestamp",
          "type": "uint256"
        }
      ],
      "name": "Transfer",
      "type": "event"
    },
    {
      "inputs": [],
      "name": "getAllTransactions",
      "outputs": [
        {
          "components": [
            {
              "internalType": "address",
              "name": "sender",
              "type": "address"
            },
            {
              "internalType": "address",
              "name": "receiver",
              "type": "address"
            },
            {
              "internalType": "uint256",
              "name": "amount",
              "type": "uint256"
            },
            {
              "internalType": "string",
              "name": "remark",
              "type": "string"
            },
            {
              "internalType": "uint256",
              "name": "timestamp",
              "type": "uint256"
            }
          ],
          "internalType": "struct Transactions.TransferStruct[]",
          "name": "",
          "type": "tuple[]"
        }
      ],
      "stateMutability": "view",
      "type": "function"
    },
    {
      "inputs": [
        {
          "internalType": "address",
          "name": "addr",
          "type": "address"
        }
      ],
      "name": "getBalance",
      "outputs": [
        {
          "internalType": "uint256",
          "name": "",
          "type": "uint256"
        }
      ],
      "stateMutability": "view",
      "type": "function"
    },
    {
      "inputs": [],
      "name": "getOwner",
      "outputs": [
        {
          "internalType": "address",
          "name": "",
          "type": "address"
        }
      ],
      "stateMutability": "view",
      "type": "function"
    },
    {
      "inputs": [],
      "name": "getTransactionsCount",
      "outputs": [
        {
          "internalType": "uint256",
          "name": "",
          "type": "uint256"
        }
      ],
      "stateMutability": "view",
      "type": "function"
    },
    {
      "inputs": [
        {
          "internalType": "address payable",
          "name": "receiver",
          "type": "address"
        },
        {
          "internalType": "uint256",
          "name": "amount",
          "type": "uint256"
        },
        {
          "internalType": "string",
          "name": "remark",
          "type": "string"
        }
      ],
      "name": "sendMoney",
      "outputs": [
        {
          "internalType": "bool",
          "name": "success",
          "type": "bool"
        }
      ],
      "stateMutability": "nonpayable",
      "type": "function"
    }
  ],
  "bytecode": "0x608060405234801561001057600080fd5b50336000806101000a81548173ffffffffffffffffffffffffffffffffffffffff021916908373ffffffffffffffffffffffffffffffffffffffff1602179055503373ffffffffffffffffffffffffffffffffffffffff1631600260003273ffffffffffffffffffffffffffffffffffffffff1673ffffffffffffffffffffffffffffffffffffffff16815260200190815260200160002081905550610e15806100bb6000396000f3fe608060405234801561001057600080fd5b50600436106100575760003560e01c8063125c5df71461005c57806327506f531461008c578063578cb8f9146100aa578063893d20e8146100c8578063f8b2cb4f146100e6575b600080fd5b610076600480360381019061007191906107e3565b610116565b6040516100839190610a43565b60405180910390f35b610094610443565b6040516100a19190610a21565b60405180910390f35b6100b26105f4565b6040516100bf9190610a5e565b60405180910390f35b6100d06105fe565b6040516100dd9190610a06565b60405180910390f35b61010060048036038101906100fb91906107ba565b610627565b60405161010d9190610a5e565b60405180910390f35b600082600260008060009054906101000a900473ffffffffffffffffffffffffffffffffffffffff1673ffffffffffffffffffffffffffffffffffffffff1673ffffffffffffffffffffffffffffffffffffffff168152602001908152602001600020541015610189576000905061043c565b82600260008060009054906101000a900473ffffffffffffffffffffffffffffffffffffffff1673ffffffffffffffffffffffffffffffffffffffff1673ffffffffffffffffffffffffffffffffffffffff16815260200190815260200160002060008282546101f99190610bc9565b9250508190555082600260008673ffffffffffffffffffffffffffffffffffffffff1673ffffffffffffffffffffffffffffffffffffffff168152602001908152602001600020600082825461024f9190610b73565b9250508190555060018060008282546102689190610b73565b9250508190555060036040518060a0016040528060008054906101000a900473ffffffffffffffffffffffffffffffffffffffff1673ffffffffffffffffffffffffffffffffffffffff1681526020018673ffffffffffffffffffffffffffffffffffffffff16815260200185815260200184815260200142815250908060018154018082558091505060019003906000526020600020906005020160009091909190915060008201518160000160006101000a81548173ffffffffffffffffffffffffffffffffffffffff021916908373ffffffffffffffffffffffffffffffffffffffff16021790555060208201518160010160006101000a81548173ffffffffffffffffffffffffffffffffffffffff021916908373ffffffffffffffffffffffffffffffffffffffff1602179055506040820151816002015560608201518160030190805190602001906103c1929190610670565b506080820151816004015550508373ffffffffffffffffffffffffffffffffffffffff163373ffffffffffffffffffffffffffffffffffffffff167fc4b32d7ff75a51e487f3cbb5d3202f2efecca1f4c2b987e0039c1d3220b48a8385854260405161042f93929190610a79565b60405180910390a3600190505b9392505050565b60606003805480602002602001604051908101604052809291908181526020016000905b828210156105eb57838290600052602060002090600502016040518060a00160405290816000820160009054906101000a900473ffffffffffffffffffffffffffffffffffffffff1673ffffffffffffffffffffffffffffffffffffffff1673ffffffffffffffffffffffffffffffffffffffff1681526020016001820160009054906101000a900473ffffffffffffffffffffffffffffffffffffffff1673ffffffffffffffffffffffffffffffffffffffff1673ffffffffffffffffffffffffffffffffffffffff1681526020016002820154815260200160038201805461055090610c99565b80601f016020809104026020016040519081016040528092919081815260200182805461057c90610c99565b80156105c95780601f1061059e576101008083540402835291602001916105c9565b820191906000526020600020905b8154815290600101906020018083116105ac57829003601f168201915b5050505050815260200160048201548152505081526020019060010190610467565b50505050905090565b6000600154905090565b60008060009054906101000a900473ffffffffffffffffffffffffffffffffffffffff16905090565b6000600260008373ffffffffffffffffffffffffffffffffffffffff1673ffffffffffffffffffffffffffffffffffffffff168152602001908152602001600020549050919050565b82805461067c90610c99565b90600052602060002090601f01602090048101928261069e57600085556106e5565b82601f106106b757805160ff19168380011785556106e5565b828001600101855582156106e5579182015b828111156106e45782518255916020019190600101906106c9565b5b5090506106f291906106f6565b5090565b5b8082111561070f5760008160009055506001016106f7565b5090565b600061072661072184610adc565b610ab7565b90508281526020810184848401111561073e57600080fd5b610749848285610c57565b509392505050565b60008135905061076081610d9a565b92915050565b60008135905061077581610db1565b92915050565b600082601f83011261078c57600080fd5b813561079c848260208601610713565b91505092915050565b6000813590506107b481610dc8565b92915050565b6000602082840312156107cc57600080fd5b60006107da84828501610751565b91505092915050565b6000806000606084860312156107f857600080fd5b600061080686828701610766565b9350506020610817868287016107a5565b925050604084013567ffffffffffffffff81111561083457600080fd5b6108408682870161077b565b9150509250925092565b60006108568383610972565b905092915050565b61086781610bfd565b82525050565b61087681610bfd565b82525050565b600061088782610b1d565b6108918185610b40565b9350836020820285016108a385610b0d565b8060005b858110156108df57848403895281516108c0858261084a565b94506108cb83610b33565b925060208a019950506001810190506108a7565b50829750879550505050505092915050565b6108fa81610c21565b82525050565b600061090b82610b28565b6109158185610b51565b9350610925818560208601610c66565b61092e81610d89565b840191505092915050565b600061094482610b28565b61094e8185610b62565b935061095e818560208601610c66565b61096781610d89565b840191505092915050565b600060a08301600083015161098a600086018261085e565b50602083015161099d602086018261085e565b5060408301516109b060408601826109e8565b50606083015184820360608601526109c88282610900565b91505060808301516109dd60808601826109e8565b508091505092915050565b6109f181610c4d565b82525050565b610a0081610c4d565b82525050565b6000602082019050610a1b600083018461086d565b92915050565b60006020820190508181036000830152610a3b818461087c565b905092915050565b6000602082019050610a5860008301846108f1565b92915050565b6000602082019050610a7360008301846109f7565b92915050565b6000606082019050610a8e60008301866109f7565b8181036020830152610aa08185610939565b9050610aaf60408301846109f7565b949350505050565b6000610ac1610ad2565b9050610acd8282610ccb565b919050565b6000604051905090565b600067ffffffffffffffff821115610af757610af6610d5a565b5b610b0082610d89565b9050602081019050919050565b6000819050602082019050919050565b600081519050919050565b600081519050919050565b6000602082019050919050565b600082825260208201905092915050565b600082825260208201905092915050565b600082825260208201905092915050565b6000610b7e82610c4d565b9150610b8983610c4d565b9250827fffffffffffffffffffffffffffffffffffffffffffffffffffffffffffffffff03821115610bbe57610bbd610cfc565b5b828201905092915050565b6000610bd482610c4d565b9150610bdf83610c4d565b925082821015610bf257610bf1610cfc565b5b828203905092915050565b6000610c0882610c2d565b9050919050565b6000610c1a82610c2d565b9050919050565b60008115159050919050565b600073ffffffffffffffffffffffffffffffffffffffff82169050919050565b6000819050919050565b82818337600083830152505050565b60005b83811015610c84578082015181840152602081019050610c69565b83811115610c93576000848401525b50505050565b60006002820490506001821680610cb157607f821691505b60208210811415610cc557610cc4610d2b565b5b50919050565b610cd482610d89565b810181811067ffffffffffffffff82111715610cf357610cf2610d5a565b5b80604052505050565b7f4e487b7100000000000000000000000000000000000000000000000000000000600052601160045260246000fd5b7f4e487b7100000000000000000000000000000000000000000000000000000000600052602260045260246000fd5b7f4e487b7100000000000000000000000000000000000000000000000000000000600052604160045260246000fd5b6000601f19601f8301169050919050565b610da381610bfd565b8114610dae57600080fd5b50565b610dba81610c0f565b8114610dc557600080fd5b50565b610dd181610c4d565b8114610ddc57600080fd5b5056fea2646970667358221220dcc494ee400bbb57d578881781cc3f205cb1ba16700ced49068248e4b3ee904e64736f6c63430008040033",
  "linkReferences": {},
  "deployedLinkReferences": {}
}